:020000020000FC
:1000000002E00EBF0FEF0DBF06D012D031D017D0D7
:1000100056D048D0FCCF0FEF05B900E004B90DE38E
:1000200008B900E007B90FEF0BB902E00AB908956B
:1000300001E400937C0005E800937A000895002411
:10004000442755276627D0E1C0E005EC00937A00ED
:1000500000917A0006FDFCCFA0917800B091790064
:100060004A0F5B1F601D219781F7A52FB62F0895BA
:1000700000E00093C00000E00093C30006E000939E
:10008000C20000E00093C50007E10093C40008E04F
:100090000093C10008951091C00015FFFCCF00939C
:1000A000C60008950AE5F7DF05EAF5DF03E0F3DFB0
:1000B00001E1F1DF0A2FEFDF0B2FEDDF08950027BD
:1000C000D4E0CEE9AC9F402D512DBD9F602D712D08
:1000D000AD9F500D611D701FBC9F500D611D701FA5
:0600E000A62FB72F0895C2
:00000001FF
